:020000040800F2
:1000000000600020312200087121000879210008D9
:1000100081210008892100089121000800000000CA
:10002000000000000000000000000000992100080E
:10003000A721000800000000B5210008C321000826
:100040008122000881220008812200088122000804
:1000500081220008812200088122000881220008F4
:1000600081220008812200088122000881220008E4
:1000700081220008812200088122000881220008D4
:1000800081220008812200088122000881220008C4
:1000900081220008812200088122000881220008B4
:1000A00081220008812200088122000881220008A4
:1000B000D121000881220008812200088122000845
:1000C0008122000881220008812200088122000884
:1000D00081220008E5210008812200088122000811
:1000E0008122000881220008812200088122000864
:1000F00081220008812200080000000000000000AA
:100100000000000000000000812200088122000899
:100110000000000000000000812200088122000889
:100120008122000881220008812200088122000823
:100130008122000881220008812200088122000813
:100140008122000800000000000000000000000004
:10015000000000000000000000000000000000009F
:100160000000000000000000812200088122000839
:100170008122000800000000F921000800000000B2
:080180000000000081220008CC
:1001880010B5054C237833B9044B13B10448AFF3C9
:1001980000800123237010BD100000200000000023
:1001A8009070000808B5034B1BB103490348AFF32F
:1001B800008008BD000000001400002090700008B6
:1001C80010F8012B11F8013B012A28BF9A42F7D0F9
:1001D800D01A704781F0004102E000BF83F000436D
:1001E80030B54FEA41044FEA430594EA050F08BFCA
:1001F80090EA020F1FBF54EA000C55EA020C7FEA8E
:10020800645C7FEA655C00F0E2804FEA5454D4EB0A
:100218005555B8BF6D420CDD2C4480EA020281EAD4
:10022800030382EA000083EA010180EA020281EA0C
:100238000303362D88BF30BD11F0004F4FEA01315E
:100248004FF4801C4CEA113102D0404261EB41016D
:1002580013F0004F4FEA03334CEA133302D05242F3
:1002680063EB430394EA050F00F0A780A4F10104AF
:10027800D5F1200E0DDB02FA0EFC22FA05F28018E9
:1002880041F1000103FA0EF2801843FA05F35941CF
:100298000EE0A5F120050EF1200E012A03FA0EFC4E
:1002A80028BF4CF0020C43FA05F3C01851EBE37178
:1002B80001F0004507D54FF0000EDCF1000C7EEB95
:1002C80000006EEB0101B1F5801F1BD3B1F5001FD3
:1002D8000CD349085FEA30004FEA3C0C04F10104F2
:1002E8004FEA445212F5800F80F09A80BCF1004F1B
:1002F80008BF5FEA500C50F1000041EB045141EA9D
:10030800050130BD5FEA4C0C404141EB0101013C65
:1003180028BFB1F5801FE9D291F0000F04BF014654
:100328000020B1FA81F308BF2033A3F10B03B3F126
:1003380020020CDA0C3208DD02F1140CC2F10C02B6
:1003480001FA0CF021FA02F10CE002F11402D8BF14
:10035800C2F1200C01FA02F120FA0CFCDCBF41EAE0
:100368000C019040E41AA2BF01EB0451294330BDAF
:100378006FEA04041F3C1CDA0C340EDC04F114048C
:10038800C4F1200220FA04F001FA02F340EA030063
:1003980021FA04F345EA030130BDC4F10C04C4F1A9
:1003A800200220FA02F001FA04F340EA0300294689
:1003B80030BD21FA04F0294630BD94F0000F83F4D3
:1003C800801306BF81F480110134013D4EE77FEAB6
:1003D800645C18BF7FEA655C29D094EA050F08BF02
:1003E80090EA020F05D054EA000C04BF19461046E3
:1003F80030BD91EA030F1EBF0021002030BD5FEA27
:10040800545C05D14000494128BF41F0004130BD4E
:1004180014F580043CBF01F5801130BD01F00045A2
:1004280045F0FE4141F470014FF0000030BD7FEA15
:10043800645C1ABF194610467FEA655C1CBF0B4610
:10044800024650EA013406BF52EA033591EA030F27
:1004580041F4002130BD00BF90F0000F04BF00211F
:10046800704730B54FF4806404F132044FF0000552
:100478004FF0000150E700BF90F0000F04BF0021CB
:10048800704730B54FF4806404F1320410F0004531
:1004980048BF40424FF000013EE700BF42004FEA2C
:1004A800E2014FEA31014FEA02701FBF12F07F43A9
:1004B80093F07F4F81F06051704732F07F4208BF60
:1004C800704793F07F4F04BF41F40021704730B567
:1004D8004FF4607401F0004521F000411CE700BFB3
:1004E80050EA010208BF704730B54FF000050AE036
:1004F80050EA010208BF704730B511F0004502D537
:10050800404261EB41014FF4806404F132045FEA38
:10051800915C3FF4D8AE4FF003025FEADC0C18BFE1
:1005280003325FEADC0C18BF033202EBDC02C2F1D3
:10053800200300FA03FC20FA02F001FA03FE40EA65
:100548000E0021FA02F11444BDE600BF70B54FF069
:10055800FF0C4CF4E06C1CEA11541DBF1CEA135547
:1005680094EA0C0F95EA0C0F00F0DEF82C4481EAAF
:10057800030621EA4C5123EA4C5350EA013518BFCF
:1005880052EA033541F4801143F4801338D0A0FBBC
:1005980002CE4FF00005E1FB02E506F00042E0FB69
:1005A80003E54FF00006E1FB03569CF0000F18BF6F
:1005B8004EF0010EA4F1FF04B6F5007F64F5407417
:1005C80004D25FEA4E0E6D4146EB060642EAC621AA
:1005D80041EA55514FEAC52040EA5E504FEACE2E17
:1005E800B4F1FD0C88BFBCF5E06F1ED8BEF1004F1A
:1005F80008BF5FEA500E50F1000041EB045170BD96
:1006080006F0004646EA010140EA020081EA0301D9
:10061800B4EB5C04C2BFD4EB0C0541EA045170BDD5
:1006280041F480114FF0000E013C00F3AB8014F14F
:10063800360FDEBF002001F0004170BDC4F1000498
:10064800203C35DA0C341BDC04F11404C4F1200519
:1006580000FA05F320FA04F001FA05F240EA020074
:1006680001F0004221F0004110EBD37021FA04F6AA
:1006780042EB06015EEA430E08BF20EAD37070BD64
:10068800C4F10C04C4F1200500FA04F320FA05F0C3
:1006980001FA04F240EA020001F0004110EBD370C5
:1006A80041F100015EEA430E08BF20EAD37070BD35
:1006B800C4F1200500FA05F24EEA020E20FA04F30E
:1006C80001FA05F243EA020321FA04F001F00041BD
:1006D80021FA04F220EA020000EBD3705EEA430E2E
:1006E80008BF20EAD37070BD94F0000F0FD101F05D
:1006F8000046400041EB010111F4801F08BF013C96
:10070800F7D041EA060195F0000F18BF704703F0D3
:100718000046520043EB030313F4801F08BF013D5A
:10072800F7D043EA0603704794EA0C0F0CEA135516
:1007380018BF95EA0C0F0CD050EA410618BF52EAD0
:100748004306D1D181EA030101F000414FF00000D6
:1007580070BD50EA410606BF1046194652EA4306E4
:1007680019D094EA0C0F02D150EA013613D195EA58
:100778000C0F05D152EA03361CBF104619460AD1A0
:1007880081EA030101F0004141F0FE4141F47001AA
:100798004FF0000070BD41F0FE4141F4780170BD9A
:1007A80070B54FF0FF0C4CF4E06C1CEA11541DBFFF
:1007B8001CEA135594EA0C0F95EA0C0F00F0A7F801
:1007C800A4EB050481EA030E52EA03354FEA01312E
:1007D80000F088804FEA03334FF0805545EA131341
:1007E80043EA12634FEA022245EA111545EA106509
:1007F8004FEA00260EF000419D4208BF964244F1A0
:10080800FD0404F5407402D25B084FEA3202B61ABE
:1008180065EB03055B084FEA32024FF480104FF492
:10082800002CB6EB020E75EB030E22BFB61A754606
:1008380040EA0C005B084FEA3202B6EB020E75EB99
:10084800030E22BFB61A754640EA5C005B084FEA01
:100858003202B6EB020E75EB030E22BFB61A7546CE
:1008680040EA9C005B084FEA3202B6EB020E75EBD9
:10087800030E22BFB61A754640EADC0055EA060E9A
:1008880018D04FEA051545EA16754FEA06164FEADD
:10089800C30343EA52734FEAC2025FEA1C1CC0D189
:1008A80011F4801F0BD141EA00014FF000004FF016
:1008B800004CB6E711F4801F04BF01430020B4F1D7
:1008C800FD0C88BFBCF5E06F3FF6AFAEB5EB030C8F
:1008D80004BFB6EB020C5FEA500C50F1000041EB8C
:1008E800045170BD0EF0004E4EEA113114EB5C0459
:1008F800C2BFD4EB0C0541EA045170BD41F480112C
:100908004FF0000E013C90E645EA060E8DE60CEA33
:10091800135594EA0C0F08BF95EA0C0F3FF43BAF50
:1009280094EA0C0F0AD150EA01347FF434AF95EA07
:100938000C0F7FF425AF104619462CE795EA0C0FEB
:1009480006D152EA03353FF4FDAE1046194622E7B8
:1009580050EA410618BF52EA43067FF4C5AE50EA92
:1009680041047FF40DAF52EA43057FF4EBAE12E782
:100978004FF0FF3C06E000BF4FF0010C02E000BF63
:100988004FF0010C4DF804CD4FEA410C7FEA6C5C46
:100998004FEA430C18BF7FEA6C5C1BD001B050EAE9
:1009A800410C0CBF52EA430C91EA030F02BF90EAD4
:1009B800020F0020704710F1000F91EA030F58BF93
:1009C800994208BF90422CBFD8176FEAE37040F0F5
:1009D800010070474FEA410C7FEA6C5C02D150EA93
:1009E800013C07D14FEA430C7FEA6C5CD6D152EA4E
:1009F800033CD3D05DF8040B704700BF8446104613
:100A080062468C461946634600E000BF01B5FFF711
:100A1800B7FF002848BF10F1000F01BD4DF808EDE1
:100A2800FFF7F4FF0CBF012000205DF808FB00BFB2
:100A38004DF808EDFFF7EAFF34BF012000205DF80C
:100A480008FB00BF4DF808EDFFF7E0FF94BF012059
:100A580000205DF808FB00BF4DF808EDFFF7CEFF5A
:100A680094BF012000205DF808FB00BF4DF808ED99
:100A7800FFF7C4FF34BF012000205DF808FB00BF6A
:100A88004A0011D212F5001211D20DD56FF4787305
:100A9800B3EB62520ED44FEAC12343F0004343EA5A
:100AA800505323FA02F070474FF00000704750EAA5
:100AB800013002D14FF0FF3070474FF0000070470F
:100AC8004FEA4102B2F1E04324BFB3F5001CDCF168
:100AD800FE5C0DD901F0004C4FEAC0024CEA5070A0
:100AE800B2F1004F40EB830008BF20F001007047CF
:100AF80011F0804F21D113F13872BCBF01F00040D2
:100B0800704741F480114FEA5252C2F11802C2F103
:100B1800200C10FA0CF320FA02F018BF40F0010084
:100B28004FEAC1234FEAD32303FA0CFC40EA0C0036
:100B380023FA02F34FEA4303CCE77FEA625307D173
:100B480050EA01331EBF4FF0FE4040F440007047AA
:100B580001F0004040F0FE4040F40000704700BF44
:100B680080B483B000AF78607B684FF000021A62EF
:100B78007B684FF000025A627B684FF000029A626D
:100B88007B684FF00002DA627B684FF000021A635C
:100B980000BF0C37BD465DF8047B70472DE9B043B4
:100BA80086B000AFF86087ED020AC7ED010A97ED3D
:100BB800027AD7ED017A77EE677AC7ED057AFB6896
:100BC800D3ED007A97ED057A67EE277AC7ED047AB8
:100BD800FB681B6A1846FFF761FC04460D46FB6874
:100BE8005B681846FFF75AFC4FF00002534BFFF7BB
:100BF800ADFC02460B4690469946FB68DB691846F1
:100C0800FFF74CFC02460B4640464946FFF79EFC60
:100C180002460B4690469946FB6893ED097AD7ED54
:100C2800057A77EE277A17EE900AFFF737FC024627
:100C38000B4640464946FFF789FC02460B462046CC
:100C48002946FFF7CDFA02460B4610461946FFF72C
:100C580037FF0246FB681A62FB6893ED087AFB6867
:100C6800D3ED067AB4EEE77AF1EE10FA04DDFB680C
:100C78009A69FB681A620EE0FB6893ED087AFB68D4
:100C8800D3ED057AB4EEE77AF1EE10FA03D5FB68F6
:100C98005A69FB681A62FB6893ED027AFB68D3ED28
:100CA800097AD7ED056A76EEE77A67EE276AFB6878
:100CB80093ED077AC6EE877AFB68C3ED0A7AFB687C
:100CC80093ED087AFB68D3ED0A7A37EE277AD7EDE9
:100CD800047A77EE277AFB68C3ED0C7AFB6893ED0C
:100CE8000C7AFB68D3ED047AB4EEE77AF1EE10FAE9
:100CF80004DDFB681A69FB681A630EE0FB6893ED74
:100D08000C7AFB68D3ED037AB4EEE77AF1EE10FAC9
:100D180003D5FB68DA68FB681A63FB687A695A626C
:100D2800FB687A68DA62FB681B6B07EE903AB0EEF4
:100D3800670A1837BD46BDE8B08300BF0000E03F32
:100D480080B483B000AF0023FB7107E0FB790C4A45
:100D5800002122F81310FB790133FB71FB791F2B5B
:100D6800F4D9084B00221A70074B00221A70074B5F
:100D780000221A8000BF0C37BD465DF8047B70471F
:100D88002C0000206C0000206D0000206E00002068
:100D980080B485B000AF0346FB802A4B1B78013333
:100DA8005A4203F01F0302F01F0258BF5342BB739D
:100DB800BB7B254A32F81330BB81224ABB7B1370B8
:100DC800204B1B781946204AFB8822F811301F4B0C
:100DD8001B781F2B05D81D4B1B780133DAB21B4B30
:100DE8001A701B4B1B88FA889A4203D9184AFB8849
:100DF800138020E0164B1B88BA899A421BD1144BEA
:100E080000221A800023FB7310E0FB7B0E4A32F8A5
:100E180013200F4B1B889A4205D9FB7B0A4A32F8EC
:100E280013200B4B1A80FB7B0133FB73074B1B789A
:100E3800FA7B9A42E9D300BF1437BD465DF8047BBC
:100E4800704700BF6C0000202C0000206D000020BF
:100E58006E00002080B400AF034B1B881846BD46C7
:100E68005DF8047B704700BF6E00002080B485B039
:100E780000AF78600B46FB70FB781E2B01D91E2350
:100E8800FB70FB78002B01D10123FB700023FB6072
:100E980007E07B68FA68002123F81210FB68013329
:100EA800FB60FB681D2BF4DD7B68002283F83C2087
:100EB8007B6800221A647B68FA7883F8442000BFB4
:100EC8001437BD465DF8047B704780B483B000AF2B
:100ED80078600B467B807B681B6C7A6892F83C20B4
:100EE80011467A6832F811209A1A7B881A447B686E
:100EF8001A647B6893F83C3019467B687A8823F833
:100F080011207B6893F83C3001337A6892F84420CA
:100F180093FBF2F101FB02F29B1ADAB27B6883F8C9
:100F28003C207B681B6C7A6892F84420B3FBF2F390
:100F380018460C37BD465DF8047B7047000000007A
:100F480080B58EB000AFB9607A603B600346FB8124
:100F5800FB891846FFF780FA02460B46C7E90423C7
:100F68003B6887F8373015E097F8373003F10053BE
:100F7800013BDB007A6C134497F83720D200796C78
:100F88001144D3E90023C1E9002397F83730013B26
:100F980087F8373097F83730002BE5D1796CD7E9E7
:100FA8000423C1E900234FF000024FF00003C7E912
:100FB8000A23002387F827301EE097F82730DB0044
:100FC800BA681344D3E9000197F82730DB007A6C3C
:100FD8001344D3E90023FFF7B9FA02460B46D7E9D1
:100FE8000A01FFF7FDF802460B46C7E90A2397F8FE
:100FF8002730013387F8273097F827303A689A4224
:10100800DBDA01233B622CE03B6ADB007A6813449D
:10101800D3E900014FF000024FF00003FFF7FEFC98
:101028000346002B1AD13B6ADB007A681344D3E9E4
:1010380000013B6A03F10053013BDB00BA6C134427
:10104800D3E90023FFF782FA02460B46D7E90A01E3
:10105800FFF7C4F802460B46C7E90A233B6A013387
:101068003B623A6A3B6C9A42CEDD7B68D3E9002347
:10107800D7E90A01FFF794FB02460B46C7E90A23A2
:101088003B6CFB7711E0FB7F03F10053013BDB0076
:10109800BA6C1344FA7FD200B96C1144D3E9002327
:1010A800C1E90023FB7F013BFB77FB7F002BEAD1E3
:1010B800B96CD7E90A23C1E900234FF000024FF0C9
:1010C8000003D7E90A01FFF7B3FC0346002B01D060
:1010D800002312E00CA3D3E90023D7E90A01FFF7A4
:1010E800C5FC0346002B02D04FF6FF7305E0D7E995
:1010F8000A01FFF7C5FC03469BB218463837BD46C0
:1011080080BD00BFAFF3008000000000E0FFEF40AB
:1011180080B400AFBFF34F8F00BF064BDB6803F40A
:10112800E0620449044B1343CB60BFF34F8F00BF09
:1011380000BFFDE700ED00E00400FA0580B5B6B099
:1011480004AF07F17C031E211846FFF78FFE07F155
:10115800340303211846FFF789FE3B463422002159
:10116800184605F065FF9D4B3B609D4B7B609D4B92
:101178003B619D4B7B619D4BBB619D4BFB613B463E
:101188001846FFF7EDFC01F079F800F05DF900F082
:101198005BFB00F025FA00F027FB00F08BFA00F06B
:1011A800B7F900F0F3F900F0D1FA924804F0D2F858
:1011B800914804F0CFF80021904801F061FE904872
:1011C80000F054FC012280218E4802F0E7F88E4B93
:1011D8001B78012B40F0DD808C4B1B78022B03D051
:1011E8008A4B1B78052B42D1894801F0A9F90A21BD
:1011F800874801F03BFA864801F050FB0346854AD0
:101208001360844B1B689AB207F17C031146184699
:10121800FFF75BFE03469BB21A467F4B1A607C4879
:1012280001F0F8F97C4B1B6800220021734801F09B
:1012380002FE7A4800F096FB03461A46784B1A805D
:10124800774B1888774B0293774B019304230093CD
:101258000423764A7649FFF773FE03461A46754B10
:101268001A80744B1B88184600F016FC8EE0674BFA
:101278001B78032B62D1694800F074FB03461A46B9
:10128800674B1A80664B1888664B0293664B01932E
:10129800042300930423654A6549FFF751FE03467A
:1012A8001A46644B1A80644B1B780133DAB2624BDE
:1012B8001A70614B1B78042B07D95E4B1B881846A4
:1012C800FFF766FD5C4B00221A70FFF7C3FD03466B
:1012D800A7F8C630594BD3ED007AB7F8C63007EEF9
:1012E800103AB8EE477A3B46F0EE470AB0EE670A86
:1012F8001846FFF753FCF0EE407AFCEEE77A17EE5B
:10130800903A9AB24E4B1A804D4B1A8807F1340323
:1013180011461846FFF7D9FD03469BB21A463D4BC6
:101328001A603C4B1B6800220021344801F083FD01
:10133800404B1B88184600F0AFFB27E0334B1B7867
:10134800042B23D1354800F00DFB03461A46344BD5
:101358001A80334B1888334B0293334B0193042381
:1013680000930423314A3249FFF7EAFD03461A463F
:10137800304B1A80274B1B68002200211F4801F0C0
:101388005AFD2C4B1B88184600F086FB1E4B00228A
:101398001A702C4B1B78002B3FF419AF01224FF425
:1013A8008071184801F0FAFF00224FF400711548C7
:1013B80001F0F4FF012000F0C7FF01224FF4007193
:1013C800104801F0EBFF012000F0BEFF01224FF4AE
:1013D80000710C4801F0E2FFFFF79AFE0AD7A33C20
:1013E8000AD7233C00F07F450000FAC300401C45A3
:1013F800B806B63B4801002094010020F000002008
:10140800E0010020000400486A0200209502002044
:10141800C00000206C02002070020020040100209F
:101428007402002098000020700000200871000855
:10143800E0700008760200207A02002000000020F8
:10144800780200206802002080B59AB000AF07F14A
:10145800400328220021184605F0EAFD07F12C0375
:1014680000221A605A609A60DA601A613B462C22A0
:101478000021184605F0DCFD01233B644FF480335E
:101488007B640023BB6401233B650223FB654FF4A7
:1014980080333B664FF4E0137B6607F14003184640
:1014A80001F0CEFF0346002B01D000F07BFA0F239A
:1014B800FB6202233B6300237B634FF48063BB63BF
:1014C8000023FB6307F12C030221184602F0C6FF34
:1014D8000346002B01D000F065FA40F681033B601B
:1014E8000023BB604FF028433B620023FB613B466F
:1014F800184603F0C5F90346002B01D000F052FA54
:101508004FF4007001F07CFF00BF6837BD4680BD16
:1015180080B584B000AF3B1D00221A605A609A6003
:10152800184B194A1A60174B00229A60154B002273
:101538001A73144B00221A75124B4FF46022DA61A9
:10154800104B00225A600F4B01221A610D4800F01F
:101558001FFF0346002B01D000F024FA08237B600C
:101568000123BB600023FB603B1D1946054801F0C1
:10157800A3F90346002B01D000F014FA00BF10377E
:10158800BD4680BDC00000200024014080B584B065
:1015980000AF3B1D00221A605A609A600E4B0F4A3A
:1015A8001A600D4801F025FC0346002B01D000F01D
:1015B800F9F900237B600023BB603B1D002219461C
:1015C800054801F0A8FC0346002B01D000F0EAF919
:1015D80000BF1037BD4680BDF000002000980040D5
:1015E80080B584B000AF3B4600221A605A609A600A
:1015F800DA602D4B2D4A1A602B4B00225A602A4B79
:1016080000229A60284B0022DA60274B4FF40072C0
:101618001A61254B0022DA62234803F0A3FA034635
:10162800002B01D000F0BEF900211F4803F022FC76
:101638000346002B01D000F0B5F900211A4803F049
:10164800E9FB0346002B01D000F0ACF90022184951
:10165800154803F0A3FB0346002B01D000F0A2F9C4
:101668004FF040633B604FF4E0037B600023BB60B6
:101678000023FB603B461A4600210B4803F002FB9F
:101688000346002B01D000F08DF9002208490648D6
:1016980003F034FB0346002B01D000F083F900BFB0
:1016A8001037BD4680BD00BF040100200060014026
:1016B8002000050080B586B000AF07F108030022BE
:1016C8001A605A609A60DA603B4600221A605A60D3
:1016D8001D4B4FF080421A601B4B07225A601A4B71
:1016E80000229A60184B4CF24F32DA60164B0022F7
:1016F8001A61154B80229A61134803F0DCFD0346FA
:10170800002B01D000F04EF94FF48053BB6007F175
:10171800080319460C4803F075FF0346002B01D057
:1017280000F040F900233B6000237B603B461946EC
:10173800054804F097F90346002B01D000F032F970
:1017480000BF1837BD4680BD4801002080B586B06F
:1017580000AF07F1080300221A605A609A60DA6045
:101768003B4600221A605A601D4B1E4A1A601C4BE9
:1017780041F61F425A601A4B00229A60184B42F2F7
:101788000F72DA60164B00221A61154B80229A619B
:10179800134803F090FD0346002B01D000F002F936
:1017A8004FF48053BB6007F1080319460C4803F057
:1017B80029FF0346002B01D000F0F4F800233B601A
:1017C80000237B603B461946054804F04BF9034665
:1017D800002B01D000F0E6F800BF1837BD4680BDE9
:1017E80094010020005C014080B500AF144B154AFD
:1017F8001A60134B4FF4E1325A60114B00229A6081
:101808000F4B0022DA600E4B00221A610C4B0C229F
:101818005A610B4B00229A61094B0022DA61084B8E
:1018280000221A62064B00225A62054804F0A2F907
:101838000346002B01D000F0B5F800BF80BD00BF03
:10184800E00100200038014080B58AB000AF07F100
:10185800140300221A605A609A60DA601A612B4BEE
:101868005B692A4A43F400235361284B5B6903F4FC
:1018780000233B613B69254B5B69244A43F48003A1
:101888005361224B5B6903F48003FB60FB681F4BC9
:101898005B691E4A43F4003353611C4B5B6903F4D4
:1018A8000033BB60BB68194B5B69184A43F480235B
:1018B8005361164B5B6903F480237B607B680022CD
:1018C8004FF47071124801F069FD4FF460437B6179
:1018D8000023BB610023FB6107F1140319460D487F
:1018E80001F0E2FB4FF470737B610123BB610023BD
:1018F800FB6100233B6207F114031946044801F019
:10190800D3FB00BF2837BD4680BD00BF0010024092
:10191800000400480008004880B582B000AF786035
:101928007B681B68B3F1804F03D10A4B01221A7000
:101938000CE07B681B68084A934207D1074B1B7869
:10194800012B03D14021064801F040FD00BF0837B4
:10195800BD4680BD6A020020005C0140690200208B
:101968000004004880B584B000AF7860786803F060
:10197800B5FA4FF0FF31786803F0CBFA07F10803A6
:101988001946786803F04DFB0346FB81786803F03D
:101998002DFBFB89A3F50043BB81BB891846103793
:1019A800BD4680BD80B400AF72B600BF00BFFDE782
:1019B80080B582B000AF786025497868FEF700FCF2
:1019C8000346002B04D12349022000F0D5F83AE061
:1019D80021497868FEF7F4FB0346002B04D11D4922
:1019E800012000F0C9F82EE01C497868FEF7E8FBF2
:1019F8000346002B04D11749032000F0BDF822E06C
:101A080017497868FEF7DCFB0346002B04D111491F
:101A1800042000F0B1F816E012497868FEF7D0FB10
:101A28000346002B04D10B49052000F0A5F80AE075
:101A38000D497868FEF7C4FB0346002B03D105491E
:101A4800002000F099F800BF0837BD4680BD00BFF0
:101A5800A870000895020020B0700008B87000084F
:101A6800C0700008CC700008D470000880B582B03F
:101A780000AF7860064A7B681360054B1B6801223B
:101A88000449184604F04DF900BF0837BD4680BD2B
:101A98007C0200208002002080B584B000AF03469D
:101AA800FB8041233B73FB88DBB27B73FB881B0AFB
:101AB8009BB2DBB2BB735A23FB73064B186807F162
:101AC8000C014FF0FF33042204F0A2F800BF1037D6
:101AD800BD4680BD7C02002080B582B000AF786032
:101AE800204B1B687A689A4238D11F4B1B78DBB2AF
:101AF8007F2B03D11D4B01221A7028E01A4B1B784B
:101B0800DBB20A2B0DD11A4B1B78DBB21A46194BE4
:101B1800002199541748FFF74BFF154B00221A7004
:101B280015E0134B1B78DBB20E2B0DD8104B1B782E
:101B3800DBB25A1CD1B20E4A11701A460A4B1B78F6
:101B4800D9B20C4B995402E0094B00221A70054B8C
:101B58001B6801220449184604F0E3F800BF08375F
:101B6800BD4680BD7C020020800200206802002063
:101B7800940200208402002080B584B000AF0346A0
:101B88003960FB710023FB733B681B78052B00F25F
:101B9800668101A252F823F0B91B0008211C000835
:101BA800871C00080F1D0008F71D0008891D000884
:101BB800FB79052B00F2558101A252F823F000BFF2
:101BC800E11B0008F91B0008071C00080D1C000891
:101BD800131C0008191C00083B6800221A70002218
:101BE8004021A84801F0DAFBA74B00221A7012E046
:101BF8003B6802221A70A44B01221A700BE0FF23E3
:101C0800FB7308E0FF23FB7305E0FF23FB7302E08F
:101C1800FF23FB7300BF24E1FB79052B00F223812E
:101C280001A252F823F000BF491C00085F1C0008FD
:101C38006D1C0008731C0008791C00087F1C000834
:101C48003B6800221A70002240218E4801F0A6FB52
:101C58008D4B00221A703B6803221A708A4B0122AE
:101C68001A700BE0FF23FB7308E0FF23FB7305E00A
:101C7800FF23FB7302E0FF23FB7300BFF3E0FB7954
:101C8800052B00F2F28001A252F823F0AD1C0008E7
:101C9800071D0008C51C0008DD1C0008E91C000819
:101CA800EF1C00083B6800221A700022402175488A
:101CB80001F074FB744B00221A7023E03B68002289
:101CC8001A70002240216F4801F068FB6E4B002219
:101CD8001A7017E03B6803221A70FFF731F811E019
:101CE800FF23FB730EE03B6805221A70664B002247
:101CF8001A7001224021634801F050FB02E0FF23E3
:101D0800FB7300BFB1E0FB79052B00F2B08001A2A4
:101D180052F823F0351D0008731D00084D1D0008FA
:101D2800791D00087F1D00085B1D00083B68002224
:101D38001A7000224021534801F030FB524B002218
:101D48001A701CE03B6801221A704F4B00221A706F
:101D580015E03B6804221A704B4B00221A700122CE
:101D68004021484801F01AFB09E0FF23FB7306E015
:101D7800FF23FB7303E03B6802221A7000BF76E082
:101D8800FB79052B75D801A252F823F0AD1D000888
:101D9800DD1D0008C51D0008E31D0008E91D000839
:101DA800EF1D00083B6800221A70002240213548C8
:101DB80001F0F4FA344B00221A7017E03B68022253
:101DC8001A70314B01221A70002240212D4801F06F
:101DD800E5FA0BE0FF23FB7308E0FF23FB7305E044
:101DE800FF23FB7302E0FF23FB7300BF41E0FB7995
:101DF800052B40D801A252F823F000BF1D1E000891
:101E08004D1E0008351E0008531E0008591E000804
:101E18005F1E00083B6800221A7000224021194802
:101E280001F0BCFA184B00221A7017E03B68032235
:101E38001A70154B01221A7000224021114801F036
:101E4800ADFA0BE0FF23FB7308E0FF23FB7305E00B
:101E5800FF23FB7302E0FF23FB7300BF0BE000BF0F
:101E68000AE000BF08E000BF06E000BF04E000BFD2
:101E780002E000BF00E000BF97F90F3018461037A6
:101E8800BD4680BD000400486902002080B483B0CC
:101E980000AF0F4B9B690E4A43F0010393610C4B53
:101EA8009B6903F001037B607B68094BDB69084A87
:101EB80043F08053D361064BDB6903F080533B60EA
:101EC8003B6800BF0C37BD465DF8047B704700BF18
:101ED8000010024080B58AB000AF786007F11403A3
:101EE80000221A605A609A60DA601A617B681B687F
:101EF800154A934223D1154B9B69144A43F4007346
:101F08009361124B9B6903F400733B613B690F4B70
:101F18005B690E4A43F4802353610C4B5B6903F4FD
:101F28008023FB60FB6801237B610323BB610023E3
:101F3800FB6107F114031946054801F0B5F800BF25
:101F48002837BD4680BD00BF002401400010024074
:101F58000004004880B58AB000AF786007F1140328
:101F680000221A605A609A60DA601A617B681B68FE
:101F7800154A934224D1154BDB69144A43F0806318
:101F8800D361124BDB6903F080633B613B690F4B04
:101F98005B690E4A43F4003353610C4B5B6903F4ED
:101FA8000033FB60FB6840237B610323BB61002394
:101FB800FB6107F1140319464FF0904001F074F8E3
:101FC80000BF2837BD4680BD009800400010024081
:101FD80080B58AB000AF786007F1140300221A6058
:101FE8005A609A60DA601A617B681B68154A9342E6
:101FF80023D1154B9B69144A43F080739361124BAC
:102008009B6903F080733B613B690F4B5B690E4A28
:1020180043F4802353610C4B5B6903F48023FB601A
:10202800FB6802237B610323BB610023FB6107F18B
:1020380014031946054801F037F800BF2837BD4694
:1020480080BD00BF0060014000100240000400484D
:1020580080B584B000AF78607B681B68B3F1804FAF
:1020680014D1194BDB69184A43F00103D361164BAD
:10207800DB6903F00103FB60FB68002200211C20E0
:1020880000F081FE1C2000F09AFE18E07B681B68B7
:102098000E4A934213D10C4B9B690B4A43F400231D
:1020A8009361094B9B6903F40023BB60BB68002262
:1020B80000214E2000F067FE4E2000F080FE00BF99
:1020C8001037BD4680BD00BF00100240005C0140D3
:1020D80080B58AB000AF786007F1140300221A6057
:1020E8005A609A60DA601A617B681B681C4A9342DE
:1020F80031D11C4B9B691B4A43F480439361194BB4
:102108009B6903F480433B613B69164B5B69154A45
:1021180043F400335361134B5B6903F40033FB60F2
:10212800FB684FF4C0637B610223BB610023FB6142
:1021380003233B6207237B6207F1140319464FF020
:10214800904000F0B1FF00220021252000F01BFE86
:10215800252000F034FE00BF2837BD4680BD00BFF3
:10216800003801400010024080B400AF00BFFDE716
:1021780080B400AF00BFFDE780B400AF00BFFDE74B
:1021880080B400AF00BFFDE780B400AF00BFFDE73B
:1021980080B400AF00BFBD465DF8047B704780B4D3
:1021A80000AF00BFBD465DF8047B704780B400AF48
:1021B80000BFBD465DF8047B704780B500AF00F0F6
:1021C800A3F800BF80BD000080B500AF024803F04F
:1021D80029F900BF80BD00BF4801002080B500AFCD
:1021E800024803F0E3FD00BF80BD00BFE00100200E
:1021F80080B500AF024803F015F900BF80BD00BFED
:102208009401002080B400AF064BD3F88830054A0B
:1022180043F47003C2F8883000BFBD465DF8047B04
:10222800704700BF00ED00E0DFF834D0FFF7EAFFA9
:102238000C480D490D4A002302E0D458C450043319
:10224800C4188C42F9D30A4A0A4C002301E01360EF
:102258000432A242FBD304F0F3FEFEF76FFFFEE761
:1022680000600020000000201000002078710008A5
:10227800100000209C020020FEE7000080B500AF9F
:10228800084B1B68074A43F010031360032000F053
:102298006FFD0F2000F008F8FFF7F8FD002318463F
:1022A80080BD00BF0020024080B582B000AF7860DA
:1022B800124B1A68124B1B7819464FF47A73B3FB0A
:1022C800F1F3B2FBF3F3184600F087FD0346002B49
:1022D80001D001230EE07B680F2B0AD80022796811
:1022E8004FF0FF3000F04FFD064A7B681360002373
:1022F80000E0012318460837BD4680BD04000020D1
:102308000C0000200800002080B400AF064B1B78AA
:102318001A46064B1B681344044A136000BFBD46A7
:102328005DF8047B704700BF0C0000209802002075
:1023380080B400AF034B1B681846BD465DF8047BAC
:10234800704700BF9802002080B584B000AF786065
:10235800FFF7EEFFB8607B68FB60FB68B3F1FF3FF7
:1023680005D00A4B1B781A46FB681344FB6000BF74
:10237800FFF7DEFF0246BB68D31AFA689A42F7D81D
:1023880000BF00BF1037BD4680BD00BF0C00002055
:1023980080B586B000AF78600023FB7500233B61F1
:1023A8000023BB600023FB607B68002B01D1012365
:1023B800BEE07B689B68002B7B689B6A002B09D179
:1023C8007B680022DA627B68002283F82420786820
:1023D800FFF780FD786800F0B9FB0346FB757B6862
:1023E8009B6A03F01003002B40F09980FB7D002BC3
:1023F80040F095807B689B6A23F4885323F002039E
:1024080043F002027B689A627B685A687B68DB69E2
:102418001A437B681B7B5B001343BA681343BB609A
:102428007B689B68B3F5807F03D07B689B68012B32
:1024380002D14FF4807300E000233A6913433B61F3
:102448007B681B7D012B19D17B681B7B002B09D175
:102458007B689B69013B5A033B69134343F4006360
:102468003B610BE07B689B6A43F020027B689A62C1
:102478007B68DB6A43F001027B68DA627B681B6871
:102488005B6823F469417B681B683A690A435A60B0
:102498007B681B689A68284B13407A681268B96889
:1024A8000B4393607B689B68B3F5807F03D07B68A0
:1024B8009B68012B04D17B681B69013B1B05FB60F2
:1024C8007B681B68DB6A23F470017B681B68FA6809
:1024D8000A43DA627B681B689A68184B1340BA682B
:1024E8009A420BD17B680022DA627B689B6A23F0F0
:1024F800030343F001027B689A6218E07B689B6AD9
:1025080023F0120343F010027B689A627B68DB6A4F
:1025180043F001027B68DA620123FB7507E07B6800
:102528009B6A43F010027B689A620123FB75FB7D6E
:1025380018461837BD4680BDFDF7E1FFFE0E1FFFA8
:1025480080B584B000AF78600023FB737B6893F894
:102558002430012B01D1022358E07B68012283F843
:102568002420786800F098FA0346FB73FB7B002B65
:102578004BD17B689B6A23F4407323F0010343F437
:1025880080727B689A627B681B685B6803F480636F
:10259800002B07D07B689B6A23F4405343F4805296
:1025A8007B689A627B689B6A03F48053B3F5805F0B
:1025B80006D17B68DB6A23F006027B68DA6202E0F8
:1025C8007B680022DA627B68002283F824207B681B
:1025D8001B686FF002021A607B681B689B6803F433
:1025E8006023B3F5602F08D17B681B689A687B6805
:1025F8001B6842F4A0029A6007E07B681B689A682F
:102608007B681B6842F480129A60FB7B184610377F
:10261800BD4680BD80B584B000AF78600023FB73F1
:102628007B6893F82430012B01D102231AE07B68E0
:10263800012283F82420786800F088FA0346FB73A7
:10264800FB7B002B09D17B689B6A23F4885323F01A
:10265800010343F001027B689A627B68002283F8D9
:102668002420FB7B18461037BD4680BD80B586B058
:1026780000AF7860396000233B6100237B617B6891
:102688001B689B6803F48073B3F5807F0BD17B686C
:102698009B6A43F020027B689A627B68002283F879
:1026A80024200123E9E0FFF743FEF8607B681B68FC
:1026B8005B6803F48073002B31D17B681B68DB6A8D
:1026C80003F47003002B2AD121E03B68B3F1FF3FEC
:1026D8001DD03B68002B07D0FFF72AFE0246FB6897
:1026E800D31A3A689A4212D27B681B681B6803F0B7
:1026F8000203002B0BD17B689B6A43F004027B68C2
:102708009A627B68002283F824200323B5E07B6863
:102718001B681B6803F00203002BD6D083E0594BDB
:102728005B6803F44043002B09D1564B5B6803F404
:102738000053002B01D102230AE0202308E0514B6B
:102748005B6803F48053002B01D1202300E0802331
:102758003B617B681B681A694B4B1340002B18D1EF
:102768007B681B68DA68494B1340002B11D17B68E2
:102778001B681A69464B1340002B08D17B681B68FD
:10278800DA68444B1340002B01D1142320E029239D
:102798001EE07B681B681A693D4B1340002B06D16D
:1027A8007B681B68DA683B4B1340002B0DD07B68B5
:1027B8001B681A69384B1340002B08D17B681B68CB
:1027C800DA68354B1340002B01D1542300E0FC2379
:1027D8003A6902FB03F33B6121E03B68B3F1FF3F39
:1027E8001AD03B68002B07D0FFF7A2FD0246FB6812
:1027F800D31A3A689A420FD27A693B699A420BD245
:102808007B689B6A43F004027B689A627B680022BB
:1028180083F82420032330E07B6901337B617A69E4
:102828003B699A42D9D37B681B686FF012021A6021
:102838007B689B6A43F400727B689A627B681B68BA
:102848009B6803F46023B3F5602F15D17B681B7B6D
:10285800002B11D17B689B6A23F480727B689A6293
:102868007B689B6A03F48053002B05D17B689B6AC5
:1028780043F001027B689A62002318461837BD4668
:1028880080BD00BF001002402449922424499200D0
:1028980092244912922449004992240080B483B0BA
:1028A80000AF78607B681B68DB6C18460C37BD4648
:1028B8005DF8047B7047000080B485B000AF786095
:1028C80039600023FB730023BB607B6893F82430D6
:1028D800012B01D10223D2E07B68012283F8242056
:1028E8003B685B68062B1CD87B681B68596B3B6888
:1028F8005A6813469B001344053B1F2202FA03F350
:10290800DB4319403B6818683B685A6813469B00CC
:102918001344053B00FA03F27B681B680A435A63B9
:102928003CE03B685B680C2B1CD87B681B68196B08
:102938003B685A6813469B001344233B1F2202FA44
:1029480003F3DB4319403B6818683B685A68134631
:102958009B001344233B00FA03F27B681B680A437D
:102968001A631BE07B681B68D96A3B685A68134680
:102978009B001344413B1F2202FA03F3DB43194037
:102988003B6818683B685A6813469B001344413BF0
:1029980000FA03F27B681B680A43DA623B681B682B
:1029A8000A2B1CD97B681B68D9683B681A681346D0
:1029B8005B0013441E3B072202FA03F3DB43194072
:1029C8003B6898683B681A6813465B0013441E3BD3
:1029D80000FA03F27B681B680A43DA6019E07B6837
:1029E8001B6819693B681A6813465B001344072281
:1029F80002FA03F3DB4319403B6898683B681A689E
:102A080013465B00134400FA03F27B681B680A4311
:102A18001A613B681B68102B03D03B681B68112B9D
:102A28001ED17B681B689A687B681B6842F40002A9
:102A38009A603B681B68102B1CD1144B1B68144A06
:102A4800A2FB03239A0C13469B0013445B00BB6054
:102A580002E0BB68013BBB60BB68002BF9D109E011
:102A68003B681B68122B05D10A4B1B68094A43F0C7
:102A7800807313607B68002283F82420FB7B184650
:102A88001437BD465DF8047B704700BF0400002082
:102A980083DE1B430000014080B584B000AF78603E
:102AA8000023FB600023BB607B681B689B6803F006
:102AB8000103012B40D07B681B689A687B681B6800
:102AC80042F001029A601F4B1B681F4AA2FB0323B6
:102AD8009B0CBB6002E0BB68013BBB60BB68002B82
:102AE800F9D1FFF725FCF8601FE0FFF721FC02464B
:102AF800FB68D31A022B18D97B681B689B6803F004
:102B08000103012B11D07B689B6A43F010027B689C
:102B18009A627B68DB6A43F001027B68DA627B6851
:102B2800002283F82420012307E07B681B689B6848
:102B380003F00103012BD8D1002318461037BD46F6
:102B480080BD00BF0400002083DE1B4380B584B035
:102B580000AF78600023FB607B681B689B6803F00C
:102B68000103012B2ED17B681B689A687B681B6860
:102B780022F001029A60FFF7DBFBF8601BE0FFF729
:102B8800D7FB0246FB68D31A022B14D97B681B6853
:102B98009B6803F00103012B0DD17B689B6A43F00E
:102BA80010027B689A627B68DB6A43F001027B68EB
:102BB800DA62012307E07B681B689B6803F0010366
:102BC800012BDCD0002318461037BD4680BD00001D
:102BD80080B485B000AF78607B6803F00703FB60C2
:102BE8000C4BDB68BB60BA684FF6FF031340BB6051
:102BF800FB681A02BB68134343F0BF6343F4003316
:102C0800BB60044ABB68D36000BF1437BD465DF89B
:102C1800047B704700ED00E080B400AF044BDB6834
:102C28001B0A03F007031846BD465DF8047B70478E
:102C380000ED00E080B483B000AF0346FB7197F964
:102C48000730002B0BDBFB7903F01F02074997F9CC
:102C580007305B09012000FA02F241F8232000BF87
:102C68000C37BD465DF8047B704700BF00E100E00B
:102C780080B483B000AF03463960FB7197F9073021
:102C8800002B0ADB3B68DAB20C4997F907301201CE
:102C9800D2B20B4483F800230AE03B68DAB2084951
:102CA800FB7903F00F03043B1201D2B20B441A76EE
:102CB80000BF0C37BD465DF8047B704700E100E0BB
:102CC80000ED00E080B489B000AFF860B9607A60C8
:102CD800FB6803F00703FB61FB69C3F10703042BDF
:102CE80028BF0423BB61FB690433062B02D9FB69A7
:102CF800033B00E000237B614FF0FF32BB6902FA1F
:102D080003F3DA43BB681A407B699A404FF0FF31FE
:102D18007B6901FA03F3D9437B680B4013431846D8
:102D28002437BD465DF8047B7047000080B582B04B
:102D380000AF78607B68013BB3F1807F01D301234A
:102D48000FE00A4A7B68013B53600F214FF0FF30C8
:102D5800FFF78EFF054B00229A60044B07221A608A
:102D6800002318460837BD4680BD00BF10E000E0CC
:102D780080B582B000AF78607868FFF729FF00BFA0
:102D88000837BD4680BD80B586B000AF0346B96040
:102D98007A60FB7300237B61FFF73EFF78617A68F6
:102DA800B9687869FFF78EFF024697F90F30114628
:102DB8001846FFF75DFF00BF1837BD4680BD80B5D8
:102DC80082B000AF0346FB7197F907301846FFF74A
:102DD80031FF00BF0837BD4680BD80B582B000AF67
:102DE80078607868FFF7A2FF034618460837BD46A3
:102DF80080BD80B582B000AF78607B68002B01D1C0
:102E0800012314E07B681B79DBB2002B05D17B68BA
:102E180000225A717868FFF79DF87B6802221A71C0
:102E28007B6800221A617B6801221A710023184608
:102E38000837BD4680BD80B487B000AFF860B96080
:102E48007A603B6000237B61FB681B687B61BB6821
:102E5800002B05D17A697B68134408337B6104E051
:102E68007A697B68134414337B617B691A463B6833
:102E78001360002318461C37BD465DF8047B704775
:102E880080B483B000AF786039607B685B79012BD0
:102E980001D1022339E07B6801225A717B68022242
:102EA8001A717B681B68196801223B689A407B6825
:102EB8001B680A431A603B68002B0FD17B681B68AC
:102EC8001B6803F03C033C2B18D17B681B685A68CD
:102ED8007B681B6842F001025A600FE07B681B6840
:102EE8001B6803F47013B3F5701F07D17B681B6868
:102EF8005A687B681B6842F002025A607B680122AC
:102F08001A717B6800225A71002318460C37BD4697
:102F18005DF8047B704780B487B000AFF860B96093
:102F28007A6000237B6100233B61FB685B79012B9E
:102F380001D1022336E0FB6801225A71FB680222A4
:102F48001A71FB681B681B687B6140F6FE727B6820
:102F580002FA03F3DB437A6913407B61BB681A68A2
:102F6800BB685B6813433B613A697B6802FA03F309
:102F78007A6913437B61FB681B687A691A60FB688E
:102F88001B681968C0227B6802FA03F3DA43FB68FE
:102F98001B680A401A60FB6801221A71FB6800224C
:102FA8005A71002318461C37BD465DF8047B7047EC
:102FB80080B483B000AF78607B68002B01D1012317
:102FC8002EE07B6893F82130022B08D07B6804221E
:102FD8009A637B68002283F82020012320E07B6825
:102FE8001B681A687B681B6822F00E021A607B68EF
:102FF8001B681A687B681B6822F001021A607B68EC
:103008001A6C7B68DB6B012101FA02F25A607B685B
:10301800012283F821207B68002283F820200023E6
:1030280018460C37BD465DF8047B704780B584B000
:1030380000AF78600023FB737B6893F82130022B84
:1030480005D07B6804229A630123FB7327E07B6821
:103058001B681A687B681B6822F00E021A607B687E
:103068001B681A687B681B6822F001021A607B687B
:103078001A6C7B68DB6B012101FA02F25A607B68EB
:10308800012283F821207B68002283F820207B68B6
:103098005B6B002B03D07B685B6B78689847FB7B86
:1030A80018461037BD4680BD80B487B000AF786041
:1030B800396000237B6154E13B681A6801217B6910
:1030C80001FA03F31340FB60FB68002B00F0468114
:1030D8003B685B6803F00303012B05D03B685B6822
:1030E80003F00303022B30D17B689B683B617B694B
:1030F8005B00032202FA03F3DB433A6913403B61A6
:103108003B68DA687B695B0002FA03F33A691343A8
:103118003B617B683A699A607B685B683B61012226
:103128007B6902FA03F3DB433A6913403B613B686E
:103138005B681B0903F001027B6902FA03F33A6931
:1031480013433B617B683A695A603B685B6803F0EC
:103158000303032B17D07B68DB683B617B695B004B
:10316800032202FA03F3DB433A6913403B613B68ED
:103178009A687B695B0002FA03F33A6913433B617F
:103188007B683A69DA603B685B6803F00303022BEB
:1031980023D17B69DA087B68083253F822303B6117
:1031A8007B6903F007039B000F2202FA03F3DB435A
:1031B8003A6913403B613B681A697B6903F007036E
:1031C8009B0002FA03F33A6913433B617B69DA080F
:1031D8007B680832396943F822107B681B683B61B9
:1031E8007B695B00032202FA03F3DB433A6913406D
:1031F8003B613B685B6803F003027B695B0002FA92
:1032080003F33A6913433B617B683A691A603B6888
:103218005B6803F44033002B00F0A080584B9B6997
:10322800574A43F001039361554B9B6903F001032F
:10323800BB60BB68534A7B699B08023352F8233052
:103248003B617B6903F003039B000F2202FA03F33F
:10325800DB433A6913403B617B68B3F1904F19D067
:103268007B68494A934213D07B68484A93420DD001
:103278007B68474A934207D07B68464A934201D10C
:10328800042308E0052306E0032304E0022302E008
:10329800012300E000237A6902F0030292009340C0
:1032A8003A6913433B6137497B699B0802333A69A2
:1032B80041F82320384B9B683B61FB68DB433A6944
:1032C80013403B613B685B6803F48013002B03D019
:1032D8003A69FB6813433B612F4A3B6993602E4B65
:1032E800DB683B61FB68DB433A6913403B613B6841
:1032F8005B6803F40013002B03D03A69FB6813439F
:103308003B61254A3B69D360234B5B683B61FB68A3
:10331800DB433A6913403B613B685B6803F4003365
:10332800002B03D03A69FB6813433B611A4A3B6997
:103338005360194B1B683B61FB68DB433A691340D8
:103348003B613B685B6803F48033002B03D03A6928
:10335800FB6813433B61104A3B6913607B69013387
:103368007B613B681A687B6922FA03F3002B7FF4C0
:10337800A3AE00BF00BF1C37BD465DF8047B704795
:103388000010024000000140000400480008004806
:10339800000C0048001000480004014080B483B0CD
:1033A80000AF78600B467B8013467B707B78002BE0
:1033B80003D07A887B689A6102E07A887B689A628F
:1033C80000BF0C37BD465DF8047B704780B485B0FC
:1033D80000AF78600B467B807B685B69FB607A880E
:1033E800FB6813401A04FB68D9437B880B401A43D7
:1033F8007B689A6100BF1437BD465DF8047B70474F
:1034080080B485B000AF78600B4BDB690A4A43F0A3
:103418008053D361084BDB6903F08053FB60FB6882
:10342800064B1A6805497B6813430B6000BF1437C5
:10343800BD465DF8047B70470010024000700040F4
:1034480080B5ADF5007D00AF07F50073A3F5FE73F9
:10345800186007F50073A3F5FE731B68002B02D1F3
:10346800012300F0F4BF07F50073A3F5FE731B6892
:103478001B6803F00103002B00F06D81B44B5B68FF
:1034880003F00C03042B0CD0B14B5B6803F00C0366
:10349800082B57D1AE4B5B6803F48033B3F5803FFC
:1034A80050D14FF40033C7F8F031D7F8F03193FA20
:1034B800A3F3C7F8EC31D7F8EC31B3FA83F3DBB2F6
:1034C8003F2B02D8A24B1B6815E04FF40033C7F816
:1034D800E831D7F8E83193FAA3F3C7F8E4314FF4A9
:1034E8000033C7F8E031D7F8E03193FAA3F3C7F80F
:1034F800DC31974B5B6A4FF40032C7F8D821D7F814
:10350800D82192FAA2F2C7F8D421D7F8D421B2FA76
:1035180082F2D2B242F02002D2B202F01F0201219E
:1035280001FA02F21340002B00F0148107F5007332
:10353800A3F5FE731B685B68002B40F00B81012329
:1035480000F085BF07F50073A3F5FE731B685B6881
:10355800B3F5803F06D17E4B1B687D4A43F4803328
:10356800136036E007F50073A3F5FE731B685B680C
:10357800002B0CD1764B1B68754A23F480331360FB
:10358800734B1B68724A23F48023136021E007F50C
:103598000073A3F5FE731B685B68B3F5A02F0CD10D
:1035A8006B4B1B686A4A43F480231360684B1B68A3
:1035B800674A43F4803313600BE0654B1B68644A29
:1035C80023F480331360624B1B68614A23F4802321
:1035D80013605F4BDB6A23F00F0207F50073A3F556
:1035E800FE731B689B685A491343CB6207F5007347
:1035F800A3F5FE731B685B68002B54D0FEF798FE9A
:10360800C7F8F8010AE0FEF793FE0246D7F8F8314A
:10361800D31A642B02D9032300F019BF4FF40033E7
:10362800C7F8D031D7F8D03193FAA3F3C7F8CC3123
:10363800D7F8CC31B3FA83F3DBB23F2B02D8444B33
:103648001B6815E04FF40033C7F8C831D7F8C83104
:1036580093FAA3F3C7F8C4314FF40033C7F8C03165
:10366800D7F8C03193FAA3F3C7F8BC31384B5B6A7B
:103678004FF40032C7F8B821D7F8B82192FAA2F26D
:10368800C7F8B421D7F8B421B2FA82F2D2B242F024
:103698002002D2B202F01F02012101FA02F2134005
:1036A800002BB0D057E0FEF743FEC7F8F8010AE058
:1036B800FEF73EFE0246D7F8F831D31A642B02D93A
:1036C800032300F0C4BE4FF40033C7F8B031D7F875
:1036D800B03193FAA3F3C7F8AC31D7F8AC31B3FAE9
:1036E80083F3DBB23F2B02D8194B1B6815E04FF46C
:1036F8000033C7F8A831D7F8A83193FAA3F3C7F86D
:10370800A4314FF40033C7F8A031D7F8A03193FAA9
:10371800A3F3C7F89C310E4B5B6A4FF40032C7F82D
:103728009821D7F8982192FAA2F2C7F89421D7F8ED
:103738009421B2FA82F2D2B242F02002D2B202F05E
:103748001F02012101FA02F21340002BB0D102E05E
:103758000010024000BF07F50073A3F5FE731B6855
:103768001B6803F00203002B00F06C81CC4B5B68F4
:1037780003F00C03002B0BD0C94B5B6803F00C0360
:10378800082B6DD1C64B5B6803F48033002B67D1DF
:103798000223C7F89031D7F8903193FAA3F3C7F80A
:1037A8008C31D7F88C31B3FA83F3DBB23F2B02D8D4
:1037B800BB4B1B6813E00223C7F88831D7F8883160
:1037C80093FAA3F3C7F884310223C7F88031D7F8F6
:1037D800803193FAA3F3C7F87C31B14B5B6A0222BC
:1037E800C7F87821D7F8782192FAA2F2C7F874219D
:1037F800D7F87421B2FA82F2D2B242F02002D2B2E1
:1038080002F01F02012101FA02F21340002B0AD034
:1038180007F50073A3F5FE731B681B69012B02D023
:10382800012300F014BE9E4B1B6823F0F80207F535
:103838000073A3F5FE731B685B69F821C7F8701164
:10384800D7F8701191FAA1F1C7F86C11D7F86C117B
:10385800B1FA81F1C9B28B40914913430B60F1E091
:1038680007F50073A3F5FE731B681B69002B00F0B6
:1038780083800123C7F86831D7F8683193FAA3F336
:10388800C7F86431D7F86431B3FA83F3DBB203F1D4
:10389800845303F584139B001A4601231360FEF733
:1038A80047FDC7F8F8010AE0FEF742FD0246D7F8DF
:1038B800F831D31A022B02D9032300F0C8BD022322
:1038C800C7F86031D7F8603193FAA3F3C7F85C31D1
:1038D800D7F85C31B3FA83F3DBB23F2B02D8704BD5
:1038E8001B6813E00223C7F85831D7F8583193FA08
:1038F800A3F3C7F854310223C7F85031D7F8503131
:1039080093FAA3F3C7F84C31654B5B6A0222C7F8F8
:103918004821D7F8482192FAA2F2C7F84421D7F8EB
:103928004421B2FA82F2D2B242F02002D2B202F0BC
:103938001F02012101FA02F21340002BB4D0584BA8
:103948001B6823F0F80207F50073A3F5FE731B68E4
:103958005B69F821C7F84011D7F8401191FAA1F135
:10396800C7F83C11D7F83C11B1FA81F1C9B28B40C4
:103978004B4913430B6065E00123C7F83831D7F88A
:10398800383193FAA3F3C7F83431D7F83431B3FA9E
:1039980083F3DBB203F1845303F584139B001A46C7
:1039A80000231360FEF7C4FCC7F8F8010AE0FEF72D
:1039B800BFFC0246D7F8F831D31A022B02D90323E9
:1039C80000F045BD0223C7F83031D7F8303193FAFB
:1039D800A3F3C7F82C31D7F82C31B3FA83F3DBB251
:1039E8003F2B02D82E4B1B6813E00223C7F828315F
:1039F800D7F8283193FAA3F3C7F824310223C7F87C
:103A08002031D7F8203193FAA3F3C7F81C31244B9F
:103A18005B6A0222C7F81821D7F8182192FAA2F295
:103A2800C7F81421D7F81421B2FA82F2D2B242F0C0
:103A38002002D2B202F01F02012101FA02F2134061
:103A4800002BB4D107F50073A3F5FE731B681B6840
:103A580003F00803002B00F0158107F50073A3F5A8
:103A6800FE731B689B69002B7ED00123C7F81031B9
:103A7800D7F8103193FAA3F3C7F80C31D7F80C3103
:103A8800B3FA83F3DBB21A46064B13449B001A467B
:103A980001231360FEF74CFCC7F8F8010FE000BFE4
:103AA8000010024020819010FEF742FC0246D7F831
:103AB800F831D31A022B02D9032300F0C8BC022321
:103AC800C7F80831D7F8083193FAA3F3C7F80431D7
:103AD80007F50073A3F5807302221A6007F50073D7
:103AE800A3F580731B6893FAA3F207F50073A3F597
:103AF80082731A6007F50073A3F5847302221A60B3
:103B080007F50073A3F584731B6893FAA3F207F50E
:103B18000073A3F586731A60B04B5A6A07F50073F1
:103B2800A3F588730221196007F50073A3F588735C
:103B38001B6893FAA3F107F50073A3F58A7319605C
:103B480007F50073A3F58A731B68B3FA83F3DBB236
:103B580043F06003DBB203F01F03012101FA03F312
:103B68001340002BA0D08DE007F50073A3F58C73EC
:103B780001221A6007F50073A3F58C731B6893FA8A
:103B8800A3F207F50073A3F58E731A6007F50073A7
:103B9800A3F58E731B68B3FA83F3DBB21A46904B16
:103BA80013449B001A4600231360FEF7C1FBC7F8B5
:103BB800F8010AE0FEF7BCFB0246D7F8F831D31A41
:103BC800022B02D9032300F042BC07F50073A3F5CA
:103BD800907302221A6007F50073A3F590731B68AF
:103BE80093FAA3F207F50073A3F592731A6007F529
:103BF8000073A3F5947302221A6007F50073A3F506
:103C080094731B6893FAA3F207F50073A3F59673F0
:103C18001A6007F50073A3F5987302221A6007F576
:103C28000073A3F598731B6893FAA3F207F5007362
:103C3800A3F59A731A60694B5A6A07F50073A3F5DE
:103C48009C730221196007F50073A3F59C731B6828
:103C580093FAA3F107F50073A3F59E73196007F5AE
:103C68000073A3F59E731B68B3FA83F3DBB243F0CA
:103C78006003DBB203F01F03012101FA03F31340D1
:103C8800002B97D107F50073A3F5FE731B681B681B
:103C980003F00403002B00F09E81002387F8FF3116
:103CA8004E4BDB6903F08053002B16D14B4BDB697D
:103CB8004A4A43F08053D361484BDB6903F0805292
:103CC80007F50073A3F5FC731A6007F50073A3F5F5
:103CD800FC731B68012387F8FF31424B1B6803F410
:103CE8008073002B1AD13F4B1B683E4A43F4807304
:103CF8001360FEF71DFBC7F8F80109E0FEF718FB93
:103D08000246D7F8F831D31A642B01D903239EE36E
:103D1800344B1B6803F48073002BEFD007F5007356
:103D2800A3F5FE731B68DB68012B06D12B4B1B6ABE
:103D38002A4A43F00103136235E007F50073A3F53F
:103D4800FE731B68DB68002B0CD1244B1B6A234ACB
:103D580023F001031362214B1B6A204A23F004035A
:103D6800136220E007F50073A3F5FE731B68DB6898
:103D7800052B0CD1194B1B6A184A43F00403136234
:103D8800164B1B6A154A43F0010313620BE0134BF1
:103D98001B6A124A23F001031362104B1B6A0F4A75
:103DA80023F00403136207F50073A3F5FE731B6881
:103DB800DB68002B00F08780FEF7BAFAC7F8F80135
:103DC80012E0FEF7B5FA0246D7F8F831D31A41F2F5
:103DD8008832934208D9032339E300BF0010024018
:103DE800208190100070004007F50073A3F5A073C0
:103DF80002221A6007F50073A3F5A0731B6893FAF3
:103E0800A3F207F50073A3F5A2731A6007F5007310
:103E1800A3F5A47302221A6007F50073A3F5A4732F
:103E28001B6893FAA3F207F50073A3F5A6731A604B
:103E380007F50073A3F5A6731B68B3FA83F3DBB227
:103E480023F05F03DBB2002B02D1984B1B6A13E00F
:103E580007F50073A3F5A87302221A6007F500732B
:103E6800A3F5A8731B6893FAA3F207F50073A3F5EB
:103E7800AA731A608D4B5B6A07F50072A2F5AC72E3
:103E88000221116007F50072A2F5AC72126892FA6D
:103E9800A2F107F50072A2F5AE72116007F5007283
:103EA800A2F5AE721268B2FA82F2D2B242F04002C1
:103EB800D2B202F01F02012101FA02F21340002BD4
:103EC8003FF47FAF7DE0FEF733FAC7F8F8010BE067
:103ED800FEF72EFA0246D7F8F831D31A41F28832A3
:103EE800934201D90323B2E207F50073A3F5B07337
:103EF80002221A6007F50073A3F5B0731B6893FAE2
:103F0800A3F207F50073A3F5B2731A6007F50073FF
:103F1800A3F5B47302221A6007F50073A3F5B4730E
:103F28001B6893FAA3F207F50073A3F5B6731A603A
:103F380007F50073A3F5B6731B68B3FA83F3DBB216
:103F480023F05F03DBB2002B02D1584B1B6A13E04E
:103F580007F50073A3F5B87302221A6007F500731A
:103F6800A3F5B8731B6893FAA3F207F50073A3F5DA
:103F7800BA731A604D4B5B6A07F50072A2F5BC7202
:103F88000221116007F50072A2F5BC72126892FA5C
:103F9800A2F107F50072A2F5BE72116007F5007272
:103FA800A2F5BE721268B2FA82F2D2B242F04002B0
:103FB800D2B202F01F02012101FA02F21340002BD3
:103FC80086D197F8FF31012B05D1384BDB69374A89
:103FD80023F08053D36107F50073A3F5FE731B68C4
:103FE800DB69002B00F03282304B5B6803F00C0376
:103FF800082B00F0018207F50073A3F5FE731B6818
:10400800DB69022B40F0578107F50073A3F5C073F5
:104018004FF080721A6007F50073A3F5C0731B6830
:1040280093FAA3F207F50073A3F5C2731A6007F5B4
:104038000073A3F5C2731B68B3FA83F3DBB203F111
:10404800845303F584139B001A4600231360FEF77C
:104058006FF9C7F8F80109E0FEF76AF90246D7F8E0
:10406800F831D31A022B01D90323F0E107F50073C5
:10407800A3F5C4734FF000721A6007F50073A3F537
:10408800C4731B6893FAA3F207F50073A3F5C6730C
:104098001A6007F50073A3F5C6731B68B3FA83F3B8
:1040A800DBB23F2B04D8014B1B6829E0001002400B
:1040B80007F50073A3F5C8734FF000721A6007F58F
:1040C8000073A3F5C8731B6893FAA3F207F500738E
:1040D800A3F5CA731A6007F50073A3F5CC734FF004
:1040E80000721A6007F50073A3F5CC731B6893FA86
:1040F800A3F207F50073A3F5CE731A60C34B5B6A8E
:1041080007F50072A2F5D0724FF00071116007F543
:104118000072A2F5D072126892FAA2F107F5007245
:10412800A2F5D272116007F50072A2F5D272126878
:10413800B2FA82F2D2B242F02002D2B202F01F02E8
:10414800012101FA02F21340002B85D1AF4B5B68C5
:1041580023F4741207F50073A3F5FE731B68596AFC
:1041680007F50073A3F5FE731B681B6A0B43A74989
:1041780013434B6007F50073A3F5D4734FF08072B7
:104188001A6007F50073A3F5D4731B6893FAA3F2BA
:1041980007F50073A3F5D6731A6007F50073A3F546
:1041A800D6731B68B3FA83F3DBB203F1845303F5C8
:1041B80084139B001A4601231360FEF7B9F8C7F869
:1041C800F80109E0FEF7B4F80246D7F8F831D31A37
:1041D800022B01D903233AE107F50073A3F5D8733D
:1041E8004FF000721A6007F50073A3F5D8731B68C7
:1041F80093FAA3F207F50073A3F5DA731A6007F5CB
:104208000073A3F5DA731B68B3FA83F3DBB23F2BB1
:1042180002D87E4B1B6827E007F50073A3F5DC7313
:104228004FF000721A6007F50073A3F5DC731B6882
:1042380093FAA3F207F50073A3F5DE731A6007F586
:104248000073A3F5E0734FF000721A6007F500736E
:10425800A3F5E0731B6893FAA3F207F50073A3F5BF
:10426800E2731A60694B5B6A07F50072A2F5E472A3
:104278004FF00071116007F50072A2F5E472126840
:1042880092FAA2F107F50072A2F5E672116007F53D
:104298000072A2F5E6721268B2FA82F2D2B242F065
:1042A8002002D2B202F01F02012101FA02F21340E9
:1042B800002B87D0CAE007F50073A3F5E8734FF029
:1042C80080721A6007F50073A3F5E8731B6893FA08
:1042D800A3F207F50073A3F5EA731A6007F50073F4
:1042E800A3F5EA731B68B3FA83F3DBB203F18453D3
:1042F80003F584139B001A4600231360FEF718F891
:10430800C7F8F80109E0FEF713F80246D7F8F831C4
:10431800D31A022B01D9032399E007F50073A3F5FB
:10432800EC734FF000721A6007F50073A3F5EC7395
:104338001B6893FAA3F207F50073A3F5EE731A60EE
:1043480007F50073A3F5EE731B68B3FA83F3DBB2CA
:104358003F2B02D82D4B1B6827E007F50073A3F508
:10436800F0734FF000721A6007F50073A3F5F0734D
:104378001B6893FAA3F207F50073A3F5F2731A60AA
:1043880007F50073A3F5F4734FF000721A6007F590
:104398000073A3F5F4731B6893FAA3F207F500738F
:1043A800A3F5F6731A60194B5B6A07F50072A2F55C
:1043B800F8724FF00071116007F50072A2F5F872FB
:1043C800126892FAA2F107F50072A2F5FA7211606A
:1043D80007F50072A2F5FA721268B2FA82F2D2B246
:1043E80042F02002D2B202F01F02012101FA02F2C9
:1043F8001340002B87D129E007F50073A3F5FE735E
:104408001B68DB69012B03D1012320E00010024067
:10441800114B5B68C7F8F431D7F8F43103F48032F4
:1044280007F50073A3F5FE731B681B6A9A420BD14C
:10443800D7F8F43103F4701207F50073A3F5FE738F
:104448001B685B6A9A4201D0012300E000231846EA
:1044580007F50077BD4680BD0010024080B59EB0CC
:1044680000AF7860396000237B677B68002B01D13F
:10447800012354E1894B1B6803F007033A689A4209
:1044880010D9864B1B6823F0070284493B68134305
:104498000B60824B1B6803F007033A689A4201D00D
:1044A80001233CE17B681B6803F00203002B08D062
:1044B8007B4B5B6823F0F0027B689B687849134369
:1044C8004B607B681B6803F00103002B00F0CD8074
:1044D8007B685B68012B37D14FF40033FB66FB6EBA
:1044E80093FAA3F33B673B6FB3FA83F3DBB23F2B3B
:1044F80002D86B4B1B680FE04FF40033BB66BB6EF2
:1045080093FAA3F37B664FF400333B663B6E93FA52
:10451800A3F3FB65624B5B6A4FF40032BA65BA6D70
:1045280092FAA2F27A657A6DB2FA82F2D2B242F0C7
:104538002002D2B202F01F02012101FA02F2134056
:10454800002B71D10123EAE07B685B68022B37D12D
:104558004FF000733B653B6D93FAA3F3FB64FB6C70
:10456800B3FA83F3DBB23F2B02D84D4B1B680FE045
:104578004FF00073BB64BB6C93FAA3F37B644FF0FA
:1045880000733B643B6C93FAA3F3FB63444B5B6A95
:104598004FF00072BA63BA6B92FAA2F27A637A6B3E
:1045A800B2FA82F2D2B242F02002D2B202F01F0274
:1045B800012101FA02F21340002B35D10123AEE0AC
:1045C80002233B633B6B93FAA3F3FB62FB6AB3FAE8
:1045D80083F3DBB23F2B02D8314B1B680DE002237B
:1045E800BB62BB6A93FAA3F37B6202233B623B6A1A
:1045F80093FAA3F3FB612A4B5B6A0222BA61BA6998
:1046080092FAA2F27A617A69B2FA82F2D2B242F0EE
:104618002002D2B202F01F02012101FA02F2134075
:10462800002B01D101237AE01D4B5B6823F00302C4
:104638007B685B681A4913434B60FDF779FE78671E
:104648000AE0FDF775FE02467B6FD31A41F2883205
:10465800934201D9032362E0114B5B6803F00C021B
:104668007B685B689B009A42EBD10C4B1B6803F09C
:1046780007033A689A4215D2084B1B6823F00702D1
:1046880006493B6813430B60044B1B6803F00703A0
:104698003A689A4206D0012341E000BF0020024058
:1046A800001002407B681B6803F00403002B08D04D
:1046B8001D4B5B6823F4E0627B68DB681A4913438F
:1046C8004B607B681B6803F00803002B09D0164B6E
:1046D8005B6823F460527B681B69DB001249134353
:1046E8004B6000F029F801460F4B5B6803F0F003BC
:1046F800F0223A613A6992FAA2F2FA60FA68B2FADA
:1047080082F2D2B2D340094AD35C21FA03F3084AB1
:104718001360084B1B681846FDF7C6FD00231846B2
:104728007837BD4680BD00BF0010024030710008D8
:10473800040000200800002080B487B000AF0023E8
:10474800FB600023BB6000237B6100237B600023A8
:104758003B611E4B5B68FB60FB6803F00C03042B9A
:1047680002D0082B03D026E0194B3B6126E0FB68FA
:104778009B0C03F00F03174AD35C7B60134BDB6A77
:1047880003F00F03144AD35CBB60FB6803F4803367
:10479800002B08D00E4ABB68B2FBF3F27B6802FB21
:1047A80003F37B6104E07B680C4A02FB03F37B6143
:1047B8007B693B6102E0064B3B6100BF3B691846E1
:1047C8001C37BD465DF8047B704700BF00100240EF
:1047D80000127A00487100085871000800093D006D
:1047E80080B400AF034B1B681846BD465DF8047BD8
:1047F800704700BF0400002080B582B000AFFFF70B
:10480800EFFF01460B4B5B6803F4E0634FF4E06293
:104818007A607A6892FAA2F23A603A68B2FA82F258
:10482800D2B2D340044AD35C21FA03F318460837BE
:10483800BD4680BD001002404071000880B582B0BE
:1048480000AFFFF7CDFF01460B4B5B6803F46053E5
:104858004FF460527A607A6892FAA2F23A603A6843
:10486800B2FA82F2D2B2D340044AD35C21FA03F3FB
:1048780018460837BD4680BD001002404071000848
:1048880080B592B000AF786000233B640023FB63DF
:10489800002387F847307B681B6803F48033002BBC
:1048A80000F0D2804D4BDB6903F08053002B0ED112
:1048B8004A4BDB69494A43F08053D361474BDB6974
:1048C80003F08053BB60BB68012387F84730444B33
:1048D8001B6803F48073002B18D1414B1B68404AB6
:1048E80043F480731360FDF723FD386408E0FDF797
:1048F8001FFD02463B6CD31A642B01D903232BE11D
:10490800374B1B6803F48073002BF0D0334B1B6AC2
:1049180003F44073FB63FB6B002B00F082807B6821
:104928005B6803F44073FA6B9A427AD02B4B1B6A8C
:1049380023F44073FB634FF480333B633B6B93FA80
:10494800A3F3FB62FB6AB3FA83F3DBB21A46254B87
:1049580013449B001A46012313604FF48033BB6352
:10496800BB6B93FAA3F37B637B6BB3FA83F3DBB282
:104978001A461C4B13449B001A4600231360174A1F
:10498800FB6B1362FB6B03F00103002B49D0FDF7AF
:10499800CFFC38640AE0FDF7CBFC02463B6CD31A27
:1049A80041F28832934201D90323D5E00223BB6246
:1049B800BB6A93FAA3F37B6202233B623B6A93FAD6
:1049C800A3F3FB61FB69B3FA83F3DBB223F05F0364
:1049D800DBB2002B08D1014B1B6A0DE0001002402E
:1049E80000700040008190100223BB61BB6993FAFC
:1049F800A3F37B615A4B5B6A02223A613A6992FAE5
:104A0800A2F2FA60FA68B2FA82F2D2B242F0400236
:104A1800D2B202F01F02012101FA02F21340002B68
:104A2800B9D04F4B1B6A23F440727B685B684C49D2
:104A380013430B6297F84730012B05D1484BDB69CC
:104A4800474A23F08053D3617B681B6803F0010356
:104A5800002B08D0424B1B6B23F003027B689B683A
:104A68003F4913430B637B681B6803F00203002B69
:104A780008D03B4B1B6B23F440327B68DB6838491A
:104A880013430B637B681B6803F00403002B08D0F7
:104A9800334B1B6B23F440227B681B69304913435B
:104AA8000B637B681B6803F02003002B08D02C4B9A
:104AB8001B6B23F010027B685B69294913430B6366
:104AC8007B681B6803F40033002B08D0244B5B6819
:104AD80023F480027B689B6A214913434B607B68FF
:104AE8001B6803F04003002B08D01D4B1B6B23F001
:104AF80020027B689B691A4913430B637B681B6818
:104B080003F08003002B08D0154B5B6823F4404268
:104B18007B68DB69124913434B607B681B6803F4AD
:104B28000063002B08D00E4B5B6823F078427B684B
:104B38001B6A0B4913434B607B681B6803F4806353
:104B4800002B08D0064B1B6B23F040027B685B6A86
:104B5800034913430B63002318464837BD4680BDFD
:104B68000010024080B584B000AF78607B68002BED
:104B780001D101237FE07B6800229A617B680022D3
:104B8800DA617B6801221A627B6801225A627B68BB
:104B980000229A627B680022DA627B684FF4005236
:104BA8001A637B6800225A637B6800229A637B68D9
:104BB80000221A647868FDF70BFA7B681B681A688C
:104BC8007B681B6822F4E0521A607B681B681968CE
:104BD8007B685A687B68DB681A437B681B680A43F2
:104BE8001A607B681B685A687B681B6822F08072B1
:104BF8005A607B681B6859687B689A687B681B6881
:104C08000A435A601E4B1B6803F440727B681B6999
:104C18009A420FD01A4B1B68194A23F44073136049
:104C2800174B1A687B681B69154913430B600220F0
:104C3800FDF78AFB7B681B685A687B681B6842F033
:104C480001025A60FDF774FBF86008E0FDF770FB9D
:104C58000246FB68D31AC82B01D903230BE07B68F3
:104C68001B689B6803F40043002BEFD17B6801228B
:104C780083F83C20002318461037BD4680BD00BF8E
:104C88000060014080B586B000AFF860B9607A6016
:104C98000023FB75FB6893F83C30012B02D00123FD
:104CA800FB7525E0F86800F0DFF90346002B06D015
:104CB800FB68FF2283F83C200323FB7518E0FB68A0
:104CC8001B681A46BB689B00134420333B617B6812
:104CD8001A687B685B681A437B689B6842EA030131
:104CE8007B68DA683B690A431A60F86800F0DFF904
:104CF800FB7D18461837BD4680BD000080B586B0DC
:104D080000AFF860B9607A600023FB75FB6893F820
:104D18003C30012B02D00123FB7537E0F86800F026
:104D2800A3F90346002B06D0FB68FF2283F83C203A
:104D38000323FB752AE0BB68174A93421FD0BB6860
:104D48001B0C3B61FB681B68196C3B699B0003F0FB
:104D58001F03032202FA03F3DA43FB681B680A40C5
:104D68001A64FB681B68196C3B699B0003F01F03FE
:104D78007A689A40FB681B680A431A6403E0FB6878
:104D88001B687A685A64F86800F091F9FB7D184648
:104D98001837BD4680BD00BF0001080080B586B049
:104DA80000AFF860B9607A600023FB75FB6893F880
:104DB8003C30002B27D0FB6893F83C30FF2B22D0E7
:104DC800FB681B68BA6892B25A617B68012B08D1EC
:104DD800FB681B685A68FB681B6842F020025A602F
:104DE80007E0FB681B685A68FB681B6822F0200212
:104DF8005A60FB687A68DA61B86800F06AF90246B6
:104E0800FB681A6201E00123FB75FB7D1846183721
:104E1800BD4680BD80B485B000AF7860396000239E
:104E2800FB737B681B68124A934205D13B68012BD0
:104E380002D10123FB7314E07B6893F83C30012B0B
:104E480009D07B6893F83C30022B04D07B6893F838
:104E58003C30032B03D17B683A68DA6201E0012316
:104E6800FB73FB7B18461437BD465DF8047B70471F
:104E78000060014080B584B000AF786039600023DD
:104E8800FB737B6893F83C30012B20D1786800F0E5
:104E9800EBF80346002B06D07B68FF2283F83C2002
:104EA8000323FB7315E07B681B685A687B681B68E3
:104EB80022F040025A607B681B6859687B681B684F
:104EC8003A680A435A60786800F0F1F801E0012373
:104ED800FB73FB7B18461037BD4680BD80B584B098
:104EE80000AF78607B6893F83C30012B04D07B6876
:104EF80093F83C30032B05D1786800F00EF903468F
:104F0800FB7301E00123FB73FB7B18461037BD469A
:104F180080BD80B584B000AF786039607B6893F855
:104F28003C30042B06D07B6893F83C30052B01D02D
:104F3800012357E0FDF7FCF9F86010E03B68B3F196
:104F4800FF3F0CD0FDF7F4F90246FB68D31A3A6824
:104F58009A4202D33B68002B01D1032342E07B68CD
:104F68001B689B6803F00203022BE7D17B681B6870
:104F78009B6803F00403042B0DD17B6802221A649A
:104F8800786800F067F87B681B68DA687B681B68DC
:104F980042F00402DA607B685B6A5A1E7B685A62D8
:104FA8007B685B6A002B03D17B681A6A7B685A624C
:104FB8007B68DB69002B14D17B68DB6A002B10D17E
:104FC8007B685A6A7B681B6A9A420AD17B6893F8A5
:104FD8003C30042B01D1012200E003227B6883F8D6
:104FE8003C20002318461037BD4680BD80B584B0EC
:104FF80000AF78607B6893F83C30042B07D07B685F
:1050080093F83C30052B02D00123FB7304E0786849
:1050180000F0D3F80346FB73FB7B18461037BD46F8
:1050280080BD80B485B000AF786039607B681B684C
:105038001B6EFB60FB681B0E03F00F023B681A60D7
:10504800FB689BB2FB60FB6818461437BD465DF8E9
:10505800047B704780B483B000AF786000BF0C3722
:10506800BD465DF8047B704780B584B000AF7860BA
:105078007B681B681A687B681B6842F000421A60EC
:10508800FDF756F9F86008E0FDF752F90246FB68AB
:10509800D31AC82B01D9032305E07B681B689B68DA
:1050A800002BF1DA002318461037BD4680BD80B4C6
:1050B80083B000AF78607B681B681A687B681B68E0
:1050C80022F000421A6000BF0C37BD465DF8047B31
:1050D800704780B487B000AF786000237B617B683D
:1050E8009BB23B610023FB600DE03B6903F00103C9
:1050F800002B02D07B6901337B613B695B083B6114
:10510800FB680133FB60FB68082BEED97B69184606
:105118001C37BD465DF8047B704780B584B000AF8E
:1051280078600023FB737B681A6A7B685A627B6825
:10513800DB6A002B08D17B681B685A687B681B6890
:1051480042F400425A6025E07868FFF78DFF034675
:10515800002B06D07B68FF2283F83C200323FB73D7
:1051680018E07B68DB6A012B08D17B681B681A682A
:105178007B681B6842F480421A6008E07B681B6801
:1051880059687B681A6B7B681B680A435A607868A1
:10519800FFF78DFFFB7B002B0AD17B6893F83C302F
:1051A800012B01D1042200E005227B6883F83C2012
:1051B800FB7B18461037BD4680BD80B584B000AF74
:1051C80078607B68DB69012B0CD17B681B681B6EE0
:1051D800BB60BB687B681B685A687B681B6822F0E9
:1051E80020025A60FDF7A4F8F8600CE0FDF7A0F87B
:1051F8000246FB68D31AC82B05D97B68FF2283F8BF
:105208003C20032353E07B681B689B6803F400532E
:10521800002BEBD17B68DB6A002B23D07868FFF783
:1052280023FF0346002B05D07B68FF2283F83C2030
:1052380003233CE07B68DB6A012B08D17B681B6891
:105248001A687B681B6822F480421A6007E07B6852
:105258001B685A687B681B6822F4C0425A607868E9
:10526800FFF725FF7B68DB69012B07D17B681B688B
:105278005A687B681B6842F020025A607B681B688A
:105288001B6EBB60BB687B681B68DA687B681B6841
:1052980042F00402DA607B6893F83C30042B01D1B9
:1052A800012200E003227B6883F83C200023184693
:1052B8001037BD4680BD80B582B000AF78607B688E
:1052C800002B01D1012341E07B6893F83D30DBB22C
:1052D800002B06D17B68002283F83C207868FCF715
:1052E800B7FE7B68022283F83D207B681A687B68DA
:1052F80004331946104600F075FA7B68012283F8DA
:1053080048207B68012283F83E207B68012283F8CD
:105318003F207B68012283F840207B68012283F8C4
:1053280041207B68012283F844207B68012283F8AE
:1053380045207B68012283F846207B68012283F898
:1053480047207B68012283F83D2000231846083750
:10535800BD4680BD80B485B000AF78607B6893F8A7
:105368003D30DBB2012B01D0012349E07B680222EA
:1053780083F83D207B681B68DA687B681B6842F00D
:105388000102DA607B681B68B3F1804F1DD07B682F
:105398001B681E4A934218D07B681B681C4A9342BC
:1053A80013D07B681B681B4A93420ED07B681B682E
:1053B800194A934209D07B681B68184A934204D063
:1053C8007B681B68164A934211D17B681B689B68EF
:1053D80003F00703FB60FB68062B10D07B681B6893
:1053E8001A687B681B6842F001021A6007E07B6854
:1053F8001B681A687B681B6842F001021A60002368
:1054080018461437BD465DF8047B70470004004019
:1054180000080040000C0040001800400040014017
:10542800005C014080B584B000AF78607B681B6881
:10543800DB68FB607B681B681B69BB60BB6803F0AB
:105448000203002B20D0FB6803F00203002B1BD0C3
:105458007B681B686FF002021A617B6801221A7769
:105468007B681B689B6903F00303002B03D07868F3
:1054780000F099F905E0786800F08BF9786800F099
:105488009CF97B6800221A77BB6803F00403002BA1
:1054980020D0FB6803F00403002B1BD07B681B683B
:1054A8006FF004021A617B6802221A777B681B6816
:1054B8009B6903F44073002B03D0786800F073F9FC
:1054C80005E0786800F065F9786800F076F97B689F
:1054D80000221A77BB6803F00803002B20D0FB6872
:1054E80003F00803002B1BD07B681B686FF00802D1
:1054F8001A617B6804221A777B681B68DB6903F0F2
:105508000303002B03D0786800F04DF905E07868B4
:1055180000F03FF9786800F050F97B6800221A77AC
:10552800BB6803F01003002B20D0FB6803F01003C6
:10553800002B1BD07B681B686FF010021A617B6818
:1055480008221A777B681B68DB6903F44073002B19
:1055580003D0786800F027F905E0786800F019F9B9
:10556800786800F02AF97B6800221A77BB6803F094
:105578000103002B0CD0FB6803F00103002B07D0BC
:105588007B681B686FF001021A617868FCF7C4F940
:10559800BB6803F08003002B0CD0FB6803F080038A
:1055A800002B07D07B681B686FF080021A6178684F
:1055B80000F0D6FABB6803F04003002B0CD0FB6860
:1055C80003F04003002B07D07B681B686FF0400294
:1055D8001A61786800F0FBF8BB6803F02003002B21
:1055E8000CD0FB6803F02003002B07D07B681B68F6
:1055F8006FF020021A61786800F0A8FA00BF10372F
:10560800BD4680BD80B584B000AF786039600023A6
:10561800FB737B6893F83C30012B01D10223B4E083
:105628007B68012283F83C207B68022283F83D20B6
:105638007B681B689B68BB60BB6823F07703BB6013
:10564800BB6823F47F43BB607B681B68BA689A60B9
:105658003B681B68B3F5005F3ED0B3F5005F00F20E
:105668008780B3F5805F00F08680B3F5805F7FD8D0
:10567800702B1AD0702B7BD8602B50D0602B77D82A
:10568800502B3CD0502B73D8402B58D0402B6FD880
:10569800302B64D0302B6BD8202B60D0202B67D8D0
:1056A800002B5CD0102B5AD062E07B6818683B68EE
:1056B80099683B685A683B68DB6800F0B3F97B6817
:1056C8001B689B68BB60BB6843F07703BB607B6863
:1056D8001B68BA689A604FE07B6818683B689968ED
:1056E8003B685A683B68DB6800F09CF97B681B687C
:1056F8009A687B681B6842F480429A603CE07B6849
:1057080018683B6859683B68DB681A4600F010F96E
:105718007B681B685021184600F069F92CE07B680B
:1057280018683B6859683B68DB681A4600F02FF92F
:105738007B681B686021184600F059F91CE07B68FB
:1057480018683B6859683B68DB681A4600F0F0F84F
:105758007B681B684021184600F049F90CE07B681B
:105768001A683B681B681946104600F040F903E0C8
:105778000123FB7300E000BF7B68012283F83D2012
:105788007B68002283F83C20FB7B18461037BD4617
:1057980080BD80B483B000AF786000BF0C37BD46D1
:1057A8005DF8047B704780B483B000AF786000BFB9
:1057B8000C37BD465DF8047B704780B483B000AFFA
:1057C800786000BF0C37BD465DF8047B704780B435
:1057D80083B000AF786000BF0C37BD465DF8047B2E
:1057E8007047000080B485B000AF786039607B688E
:1057F8001B68FB607B68B3F1804F0FD07B68424A1F
:1058080093420BD07B68414A934207D07B68404A59
:10581800934203D07B683F4A934208D1FB6823F048
:105828007003FB603B685B68FA681343FB607B6846
:10583800B3F1804F27D07B68334A934223D07B68EB
:10584800324A93421FD07B68314A93421BD07B680F
:10585800314A934217D07B68304A934213D07B6811
:105868002F4A93420FD07B682E4A93420BD07B6815
:105878002D4A934207D07B682C4A934203D07B6819
:10588800244A934208D1FB6823F44073FB603B68C9
:10589800DB68FA681343FB60FB6823F080023B680F
:1058A8005B691343FB607B68FA681A603B689A6817
:1058B8007B68DA623B681A687B689A627B68194A77
:1058C800934207D07B68184A934203D07B68174AF3
:1058D800934203D13B681A697B681A637B6801228B
:1058E8005A617B681B6903F00103012B05D17B68B2
:1058F8001B6923F001027B681A6100BF1437BD469B
:105908005DF8047B704700BF0004004000080040B9
:10591800000C0040005C014000180040001C0040E2
:105928000020004000400140004401400048014080
:1059380080B487B000AFF860B9607A60FB681B6A12
:105948007B61FB681B6A23F00102FB681A62FB6833
:105958009B693B613B6923F0F0033B617B681B015A
:105968003A6913433B617B6923F00A037B617A69D7
:10597800BB6813437B61FB683A699A61FB687A6983
:105988001A6200BF1C37BD465DF8047B704780B4BF
:1059980087B000AFF860B9607A60FB681B6A7B610A
:1059A800FB681B6A23F01002FB681A62FB689B699C
:1059B8003B613B6923F470433B617B681B033A6995
:1059C80013433B617B6923F0A0037B61BB681B0128
:1059D8007A6913437B61FB683A699A61FB687A6963
:1059E8001A6200BF1C37BD465DF8047B704780B45F
:1059F80085B000AF786039607B689B68FB60FB68A6
:105A080023F07003FB603A68FB68134343F0070315
:105A1800FB607B68FA689A6000BF1437BD465DF882
:105A2800047B704780B487B000AFF860B9607A60D3
:105A38003B60FB689B687B617B6923F47F437B61E8
:105A48003B681A027B681A43BB6813437A6913439D
:105A58007B61FB687A699A6000BF1C37BD465DF8B8
:105A6800047B704780B485B000AF786039607B688C
:105A780093F83C30012B01D1022355E07B680122C9
:105A880083F83C207B68022283F83D207B681B68F2
:105A98005B68FB607B681B689B68BB60FB6823F0E6
:105AA8007003FB603B681B68FA681343FB607B6804
:105AB8001B68FA685A607B681B68B3F1804F1DD079
:105AC8007B681B681B4A934218D07B681B681A4A7C
